:100000000C9434000C943E000C943E000C943E0082
:100010000C943E000C943E000C943E000C943E0068
:100020000C943E000C943E000C943E000C943E0058
:100030000C943E000C943E000C943E000C943E0048
:100040000C943E000C943E000C943E000C943E0038
:100050000C943E000C943E000C943E000C943E0028
:100060000C943E000C943E0011241FBECFEFD8E04C
:10007000DEBFCDBF0E945B000C946F010C940000AA
:100080009093C5008093C40088E18093C10086E00E
:100090008093C2000895E0ECF0E0908195FFFDCFE1
:1000A0008093C6000895E0ECF0E080818823ECF7AF
:1000B0008091C6000895CF93DF9300D000D0CDB7D4
:1000C000DEB787E690E00E9440000E945300182FA0
:1000D0000E945300082F0E945300F82E0E945300E4
:1000E0008C83FB820A83198369817A818B819C814D
:1000F0009B01AC010E9483000E94EF00862F0E94AA
:100100004B00E3CF5058BB27AA270E949A000C94BB
:1001100035010E94270138F00E942E0120F039F4A9
:100120009F3F19F426F40C9424010EF4E095E7FBAC
:100130000C941E01E92F0E94460158F3BA1762077A
:1001400073078407950720F079F4A6F50C946801ED
:100150000EF4E0950B2EBA2FA02D0B01B9019001E2
:100160000C01CA01A0011124FF27591B99F0593F26
:1001700050F4503E68F11A16F040A22F232F342F6E
:100180004427585FF3CF469537952795A795F040BC
:100190005395C9F77EF41F16BA0B620B730B840BD1
:1001A000BAF09150A1F0FF0FBB1F661F771F881F89
:1001B000C2F70EC0BA0F621F731F841F48F48795E1
:1001C00077956795B795F7959E3F08F0B0CF9395D3
:1001D000880F08F09927EE0F9795879508950E944C
:1001E0004E0188F09F5798F0B92F9927B751B0F07A
:1001F000E1F0660F771F881F991F1AF0BA95C9F7AB
:1002000014C0B13091F00E946801B1E008950C94DF
:100210006801672F782F8827B85F39F0B93FCCF392
:10022000869577956795B395D9F73EF49095809527
:10023000709561957F4F8F4F9F4F089597F99F67F6
:1002400080E870E060E008959FEF80EC089500245E
:100250000A941616170618060906089500240A942B
:1002600012161306140605060895092E0394000CB1
:1002700011F4882352F0BB0F40F4BF2B11F460FF40
:1002800004C06F5F7F4F8F4F9F4F089557FD905869
:10029000440F551F59F05F3F71F04795880F97FB4A
:1002A000991F61F09F3F79F0879508951216130604
:1002B0001406551FF2CF4695F1DF08C01616170633
:1002C0001806991FF1CF8695710561050894089568
:1002D000E894BB2766277727CB0197F90895F89410
:0202E000FFCF4E
:00000001FF
