:100000000C9434000C943E000C943E000C943E0082
:100010000C943E000C943E000C943E000C943E0068
:100020000C943E000C943E000C943E000C943E0058
:100030000C943E000C943E000C943E000C943E0048
:100040000C943E000C943E000C943E000C943E0038
:100050000C943E000C943E000C943E000C943E0028
:100060000C943E000C943E0011241FBECFEFD8E04C
:10007000DEBFCDBF0E945E000C9493000C94000084
:100080009093C5008093C40088E18093C10086E00E
:100090008093C2000895E0ECF0E080818823ECF7C3
:1000A0008091C600089584B1886284B986E58CBDCC
:1000B00008958EBD0DB407FEFDCF0895579A229A7C
:1000C0002A9A0E94530087E690E00E9440000E9416
:1000D0004B000E944B00C82F0E944B00D82F0E945B
:1000E0004B00182F0E944B002A98812F0E94590024
:1000F0008D2F0E9459008C2F0E9459002A9A5E9BD6
:10010000FECF5F988FE99FE00197F1F700C00000F4
:100110005F9A9FEF29E688E1915020408040E1F707
:0A01200000C00000D4CFF894FFCF18
:00000001FF
