S01300004144353338305F746573742E737265639D
S11300000C9434000C943E000C943E000C943E007E
S11300100C943E000C943E000C943E000C943E0064
S11300200C943E000C943E000C943E000C943E0054
S11300300C943E000C943E000C943E000C943E0044
S11300400C943E000C943E000C943E000C943E0034
S11300500C943E000C943E000C943E000C943E0024
S11300600C943E000C943E0011241FBECFEFD8E048
S1130070DEBFCDBF0E944B000C9478000C940000AE
S113008084B1886284B986E58CBD08958EBD0DB4B3
S113009007FEFDCF0895579A229A2A9A0E9440009B
S11300A02FEF87EA91E6215080409040E1F700C0AD
S11300B000002A988AE00E94460080EE0E944600D2
S11300C080E00E9446002A9A5E9BFECF5F988FE9EB
S11300D09FE00197F1F700C000005F9A9FEF29E6C7
S11300E088E1915020408040E1F700C00000E1CF5A
S10700F0F894FFCFAE
S9030000FC
